{
  "_format": "hh-sol-artifact-1",
  "contractName": "GameAssets",
  "sourceName": "contracts/GameAssets.sol",
  "abi": [
    {
      "inputs": [
        {
          "internalType": "string",
          "name": "uri",
          "type": "string"
        }
      ],
      "stateMutability": "nonpayable",
      "type": "constructor"
    },
    {
      "inputs": [
        {
          "internalType": "address",
          "name": "sender",
          "type": "address"
        },
        {
          "internalType": "uint256",
          "name": "balance",
          "type": "uint256"
        },
        {
          "internalType": "uint256",
          "name": "needed",
          "type": "uint256"
        },
        {
          "internalType": "uint256",
          "name": "tokenId",
          "type": "uint256"
        }
      ],
      "name": "ERC1155InsufficientBalance",
      "type": "error"
    },
    {
      "inputs": [
        {
          "internalType": "address",
          "name": "approver",
          "type": "address"
        }
      ],
      "name": "ERC1155InvalidApprover",
      "type": "error"
    },
    {
      "inputs": [
        {
          "internalType": "uint256",
          "name": "idsLength",
          "type": "uint256"
        },
        {
          "internalType": "uint256",
          "name": "valuesLength",
          "type": "uint256"
        }
      ],
      "name": "ERC1155InvalidArrayLength",
      "type": "error"
    },
    {
      "inputs": [
        {
          "internalType": "address",
          "name": "operator",
          "type": "address"
        }
      ],
      "name": "ERC1155InvalidOperator",
      "type": "error"
    },
    {
      "inputs": [
        {
          "internalType": "address",
          "name": "receiver",
          "type": "address"
        }
      ],
      "name": "ERC1155InvalidReceiver",
      "type": "error"
    },
    {
      "inputs": [
        {
          "internalType": "address",
          "name": "sender",
          "type": "address"
        }
      ],
      "name": "ERC1155InvalidSender",
      "type": "error"
    },
    {
      "inputs": [
        {
          "internalType": "address",
          "name": "operator",
          "type": "address"
        },
        {
          "internalType": "address",
          "name": "owner",
          "type": "address"
        }
      ],
      "name": "ERC1155MissingApprovalForAll",
      "type": "error"
    },
    {
      "inputs": [
        {
          "internalType": "address",
          "name": "owner",
          "type": "address"
        }
      ],
      "name": "OwnableInvalidOwner",
      "type": "error"
    },
    {
      "inputs": [
        {
          "internalType": "address",
          "name": "account",
          "type": "address"
        }
      ],
      "name": "OwnableUnauthorizedAccount",
      "type": "error"
    },
    {
      "anonymous": false,
      "inputs": [
        {
          "indexed": true,
          "internalType": "address",
          "name": "account",
          "type": "address"
        },
        {
          "indexed": true,
          "internalType": "address",
          "name": "operator",
          "type": "address"
        },
        {
          "indexed": false,
          "internalType": "bool",
          "name": "approved",
          "type": "bool"
        }
      ],
      "name": "ApprovalForAll",
      "type": "event"
    },
    {
      "anonymous": false,
      "inputs": [
        {
          "indexed": true,
          "internalType": "address",
          "name": "previousOwner",
          "type": "address"
        },
        {
          "indexed": true,
          "internalType": "address",
          "name": "newOwner",
          "type": "address"
        }
      ],
      "name": "OwnershipTransferred",
      "type": "event"
    },
    {
      "anonymous": false,
      "inputs": [
        {
          "indexed": true,
          "internalType": "address",
          "name": "operator",
          "type": "address"
        },
        {
          "indexed": true,
          "internalType": "address",
          "name": "from",
          "type": "address"
        },
        {
          "indexed": true,
          "internalType": "address",
          "name": "to",
          "type": "address"
        },
        {
          "indexed": false,
          "internalType": "uint256[]",
          "name": "ids",
          "type": "uint256[]"
        },
        {
          "indexed": false,
          "internalType": "uint256[]",
          "name": "values",
          "type": "uint256[]"
        }
      ],
      "name": "TransferBatch",
      "type": "event"
    },
    {
      "anonymous": false,
      "inputs": [
        {
          "indexed": true,
          "internalType": "address",
          "name": "operator",
          "type": "address"
        },
        {
          "indexed": true,
          "internalType": "address",
          "name": "from",
          "type": "address"
        },
        {
          "indexed": true,
          "internalType": "address",
          "name": "to",
          "type": "address"
        },
        {
          "indexed": false,
          "internalType": "uint256",
          "name": "id",
          "type": "uint256"
        },
        {
          "indexed": false,
          "internalType": "uint256",
          "name": "value",
          "type": "uint256"
        }
      ],
      "name": "TransferSingle",
      "type": "event"
    },
    {
      "anonymous": false,
      "inputs": [
        {
          "indexed": false,
          "internalType": "string",
          "name": "value",
          "type": "string"
        },
        {
          "indexed": true,
          "internalType": "uint256",
          "name": "id",
          "type": "uint256"
        }
      ],
      "name": "URI",
      "type": "event"
    },
    {
      "inputs": [],
      "name": "EPIC_SWORD",
      "outputs": [
        {
          "internalType": "uint256",
          "name": "",
          "type": "uint256"
        }
      ],
      "stateMutability": "view",
      "type": "function"
    },
    {
      "inputs": [
        {
          "internalType": "address",
          "name": "account",
          "type": "address"
        },
        {
          "internalType": "uint256",
          "name": "id",
          "type": "uint256"
        }
      ],
      "name": "balanceOf",
      "outputs": [
        {
          "internalType": "uint256",
          "name": "",
          "type": "uint256"
        }
      ],
      "stateMutability": "view",
      "type": "function"
    },
    {
      "inputs": [
        {
          "internalType": "address[]",
          "name": "accounts",
          "type": "address[]"
        },
        {
          "internalType": "uint256[]",
          "name": "ids",
          "type": "uint256[]"
        }
      ],
      "name": "balanceOfBatch",
      "outputs": [
        {
          "internalType": "uint256[]",
          "name": "",
          "type": "uint256[]"
        }
      ],
      "stateMutability": "view",
      "type": "function"
    },
    {
      "inputs": [
        {
          "internalType": "address",
          "name": "account",
          "type": "address"
        },
        {
          "internalType": "address",
          "name": "operator",
          "type": "address"
        }
      ],
      "name": "isApprovedForAll",
      "outputs": [
        {
          "internalType": "bool",
          "name": "",
          "type": "bool"
        }
      ],
      "stateMutability": "view",
      "type": "function"
    },
    {
      "inputs": [
        {
          "internalType": "address",
          "name": "to",
          "type": "address"
        },
        {
          "internalType": "uint256",
          "name": "amount",
          "type": "uint256"
        }
      ],
      "name": "mintEpicSword",
      "outputs": [],
      "stateMutability": "nonpayable",
      "type": "function"
    },
    {
      "inputs": [],
      "name": "owner",
      "outputs": [
        {
          "internalType": "address",
          "name": "",
          "type": "address"
        }
      ],
      "stateMutability": "view",
      "type": "function"
    },
    {
      "inputs": [],
      "name": "renounceOwnership",
      "outputs": [],
      "stateMutability": "nonpayable",
      "type": "function"
    },
    {
      "inputs": [
        {
          "internalType": "address",
          "name": "from",
          "type": "address"
        },
        {
          "internalType": "address",
          "name": "to",
          "type": "address"
        },
        {
          "internalType": "uint256[]",
          "name": "ids",
          "type": "uint256[]"
        },
        {
          "internalType": "uint256[]",
          "name": "values",
          "type": "uint256[]"
        },
        {
          "internalType": "bytes",
          "name": "data",
          "type": "bytes"
        }
      ],
      "name": "safeBatchTransferFrom",
      "outputs": [],
      "stateMutability": "nonpayable",
      "type": "function"
    },
    {
      "inputs": [
        {
          "internalType": "address",
          "name": "from",
          "type": "address"
        },
        {
          "internalType": "address",
          "name": "to",
          "type": "address"
        },
        {
          "internalType": "uint256",
          "name": "id",
          "type": "uint256"
        },
        {
          "internalType": "uint256",
          "name": "value",
          "type": "uint256"
        },
        {
          "internalType": "bytes",
          "name": "data",
          "type": "bytes"
        }
      ],
      "name": "safeTransferFrom",
      "outputs": [],
      "stateMutability": "nonpayable",
      "type": "function"
    },
    {
      "inputs": [
        {
          "internalType": "address",
          "name": "operator",
          "type": "address"
        },
        {
          "internalType": "bool",
          "name": "approved",
          "type": "bool"
        }
      ],
      "name": "setApprovalForAll",
      "outputs": [],
      "stateMutability": "nonpayable",
      "type": "function"
    },
    {
      "inputs": [
        {
          "internalType": "string",
          "name": "newURI",
          "type": "string"
        }
      ],
      "name": "setBaseURI",
      "outputs": [],
      "stateMutability": "nonpayable",
      "type": "function"
    },
    {
      "inputs": [
        {
          "internalType": "bytes4",
          "name": "interfaceId",
          "type": "bytes4"
        }
      ],
      "name": "supportsInterface",
      "outputs": [
        {
          "internalType": "bool",
          "name": "",
          "type": "bool"
        }
      ],
      "stateMutability": "view",
      "type": "function"
    },
    {
      "inputs": [
        {
          "internalType": "address",
          "name": "newOwner",
          "type": "address"
        }
      ],
      "name": "transferOwnership",
      "outputs": [],
      "stateMutability": "nonpayable",
      "type": "function"
    },
    {
      "inputs": [
        {
          "internalType": "uint256",
          "name": "",
          "type": "uint256"
        }
      ],
      "name": "uri",
      "outputs": [
        {
          "internalType": "string",
          "name": "",
          "type": "string"
        }
      ],
      "stateMutability": "view",
      "type": "function"
    }
  ],
  "bytecode": "0x608060405234801561001057600080fd5b5060405161399e38038061399e83398181016040528101906100329190610c0e565b3381610043816100ef60201b60201c565b50600073ffffffffffffffffffffffffffffffffffffffff168173ffffffffffffffffffffffffffffffffffffffff16036100b65760006040517f1e4fbdf70000000000000000000000000000000000000000000000000000000081526004016100ad9190610c98565b60405180910390fd5b6100c58161010260201b60201c565b506100e93360016002604051806020016040528060008152506101c860201b60201c565b50611317565b80600290816100fe9190610ed4565b5050565b6000600360009054906101000a900473ffffffffffffffffffffffffffffffffffffffff16905081600360006101000a81548173ffffffffffffffffffffffffffffffffffffffff021916908373ffffffffffffffffffffffffffffffffffffffff1602179055508173ffffffffffffffffffffffffffffffffffffffff168173ffffffffffffffffffffffffffffffffffffffff167f8be0079c531659141344cd1fd0a4f28419497f9722a3daafe3b4186f6b6457e060405160405180910390a35050565b600073ffffffffffffffffffffffffffffffffffffffff168473ffffffffffffffffffffffffffffffffffffffff160361023a5760006040517f57f447ce0000000000000000000000000000000000000000000000000000000081526004016102319190610c98565b60405180910390fd5b60008061024d858561026d60201b60201c565b9150915061026560008784848761029d60201b60201c565b505050505050565b60608060405191506001825283602083015260408201905060018152826020820152604081016040529250929050565b6102af8585858561036760201b60201c565b600073ffffffffffffffffffffffffffffffffffffffff168473ffffffffffffffffffffffffffffffffffffffff16146103605760006102f361071560201b60201c565b9050600184510361034957600061031460008661071d60201b90919060201c565b9050600061032c60008661071d60201b90919060201c565b905061034283898985858961073160201b60201c565b505061035e565b61035d8187878787876108e560201b60201c565b5b505b5050505050565b80518251146103b157815181516040517f5b0599910000000000000000000000000000000000000000000000000000000081526004016103a8929190610fb5565b60405180910390fd5b60006103c161071560201b60201c565b905060005b83518110156105d05760006103e4828661071d60201b90919060201c565b905060006103fb838661071d60201b90919060201c565b9050600073ffffffffffffffffffffffffffffffffffffffff168873ffffffffffffffffffffffffffffffffffffffff161461052857600080600084815260200190815260200160002060008a73ffffffffffffffffffffffffffffffffffffffff1673ffffffffffffffffffffffffffffffffffffffff168152602001908152602001600020549050818110156104d057888183856040517f03dee4c50000000000000000000000000000000000000000000000000000000081526004016104c79493929190610fde565b60405180910390fd5b81810360008085815260200190815260200160002060008b73ffffffffffffffffffffffffffffffffffffffff1673ffffffffffffffffffffffffffffffffffffffff16815260200190815260200160002081905550505b600073ffffffffffffffffffffffffffffffffffffffff168773ffffffffffffffffffffffffffffffffffffffff16146105c3578060008084815260200190815260200160002060008973ffffffffffffffffffffffffffffffffffffffff1673ffffffffffffffffffffffffffffffffffffffff16815260200190815260200160002060008282546105bb9190611052565b925050819055505b50508060010190506103c6565b50600183510361068f5760006105f060008561071d60201b90919060201c565b9050600061060860008561071d60201b90919060201c565b90508573ffffffffffffffffffffffffffffffffffffffff168773ffffffffffffffffffffffffffffffffffffffff168473ffffffffffffffffffffffffffffffffffffffff167fc3d58168c5ae7397731d063d5bbf3d657854427343f4c083240f7aacaa2d0f628585604051610680929190610fb5565b60405180910390a4505061070e565b8373ffffffffffffffffffffffffffffffffffffffff168573ffffffffffffffffffffffffffffffffffffffff168273ffffffffffffffffffffffffffffffffffffffff167f4a39dc06d4c0dbc64b70af90fd698a233a518aa5d07e595d983b8c0526c8f7fb8686604051610705929190611144565b60405180910390a45b5050505050565b600033905090565b600060208202602084010151905092915050565b60008473ffffffffffffffffffffffffffffffffffffffff163b11156108dd578373ffffffffffffffffffffffffffffffffffffffff1663f23a6e6187878686866040518663ffffffff1660e01b81526004016107929594939291906111d0565b6020604051808303816000875af19250505080156107ce57506040513d601f19601f820116820180604052508101906107cb9190611282565b60015b610852573d80600081146107fe576040519150601f19603f3d011682016040523d82523d6000602084013e610803565b606091505b50600081510361084a57846040517f57f447ce0000000000000000000000000000000000000000000000000000000081526004016108419190610c98565b60405180910390fd5b805181602001fd5b63f23a6e6160e01b7bffffffffffffffffffffffffffffffffffffffffffffffffffffffff1916817bffffffffffffffffffffffffffffffffffffffffffffffffffffffff1916146108db57846040517f57f447ce0000000000000000000000000000000000000000000000000000000081526004016108d29190610c98565b60405180910390fd5b505b505050505050565b60008473ffffffffffffffffffffffffffffffffffffffff163b1115610a91578373ffffffffffffffffffffffffffffffffffffffff1663bc197c8187878686866040518663ffffffff1660e01b81526004016109469594939291906112af565b6020604051808303816000875af192505050801561098257506040513d601f19601f8201168201806040525081019061097f9190611282565b60015b610a06573d80600081146109b2576040519150601f19603f3d011682016040523d82523d6000602084013e6109b7565b606091505b5060008151036109fe57846040517f57f447ce0000000000000000000000000000000000000000000000000000000081526004016109f59190610c98565b60405180910390fd5b805181602001fd5b63bc197c8160e01b7bffffffffffffffffffffffffffffffffffffffffffffffffffffffff1916817bffffffffffffffffffffffffffffffffffffffffffffffffffffffff191614610a8f57846040517f57f447ce000000000000000000000000000000000000000000000000000000008152600401610a869190610c98565b60405180910390fd5b505b505050505050565b6000604051905090565b600080fd5b600080fd5b600080fd5b600080fd5b6000601f19601f8301169050919050565b7f4e487b7100000000000000000000000000000000000000000000000000000000600052604160045260246000fd5b610b0082610ab7565b810181811067ffffffffffffffff82111715610b1f57610b1e610ac8565b5b80604052505050565b6000610b32610a99565b9050610b3e8282610af7565b919050565b600067ffffffffffffffff821115610b5e57610b5d610ac8565b5b610b6782610ab7565b9050602081019050919050565b60005b83811015610b92578082015181840152602081019050610b77565b60008484015250505050565b6000610bb1610bac84610b43565b610b28565b905082815260208101848484011115610bcd57610bcc610ab2565b5b610bd8848285610b74565b509392505050565b600082601f830112610bf557610bf4610aad565b5b8151610c05848260208601610b9e565b91505092915050565b600060208284031215610c2457610c23610aa3565b5b600082015167ffffffffffffffff811115610c4257610c41610aa8565b5b610c4e84828501610be0565b91505092915050565b600073ffffffffffffffffffffffffffffffffffffffff82169050919050565b6000610c8282610c57565b9050919050565b610c9281610c77565b82525050565b6000602082019050610cad6000830184610c89565b92915050565b600081519050919050565b7f4e487b7100000000000000000000000000000000000000000000000000000000600052602260045260246000fd5b60006002820490506001821680610d0557607f821691505b602082108103610d1857610d17610cbe565b5b50919050565b60008190508160005260206000209050919050565b60006020601f8301049050919050565b600082821b905092915050565b600060088302610d807fffffffffffffffffffffffffffffffffffffffffffffffffffffffffffffffff82610d43565b610d8a8683610d43565b95508019841693508086168417925050509392505050565b6000819050919050565b6000819050919050565b6000610dd1610dcc610dc784610da2565b610dac565b610da2565b9050919050565b6000819050919050565b610deb83610db6565b610dff610df782610dd8565b848454610d50565b825550505050565b600090565b610e14610e07565b610e1f818484610de2565b505050565b5b81811015610e4357610e38600082610e0c565b600181019050610e25565b5050565b601f821115610e8857610e5981610d1e565b610e6284610d33565b81016020851015610e71578190505b610e85610e7d85610d33565b830182610e24565b50505b505050565b600082821c905092915050565b6000610eab60001984600802610e8d565b1980831691505092915050565b6000610ec48383610e9a565b9150826002028217905092915050565b610edd82610cb3565b67ffffffffffffffff811115610ef657610ef5610ac8565b5b610f008254610ced565b610f0b828285610e47565b600060209050601f831160018114610f3e5760008415610f2c578287015190505b610f368582610eb8565b865550610f9e565b601f198416610f4c86610d1e565b60005b82811015610f7457848901518255600182019150602085019450602081019050610f4f565b86831015610f915784890151610f8d601f891682610e9a565b8355505b6001600288020188555050505b505050505050565b610faf81610da2565b82525050565b6000604082019050610fca6000830185610fa6565b610fd76020830184610fa6565b9392505050565b6000608082019050610ff36000830187610c89565b6110006020830186610fa6565b61100d6040830185610fa6565b61101a6060830184610fa6565b95945050505050565b7f4e487b7100000000000000000000000000000000000000000000000000000000600052601160045260246000fd5b600061105d82610da2565b915061106883610da2565b92508282019050808211156110805761107f611023565b5b92915050565b600081519050919050565b600082825260208201905092915050565b6000819050602082019050919050565b6110bb81610da2565b82525050565b60006110cd83836110b2565b60208301905092915050565b6000602082019050919050565b60006110f182611086565b6110fb8185611091565b9350611106836110a2565b8060005b8381101561113757815161111e88826110c1565b9750611129836110d9565b92505060018101905061110a565b5085935050505092915050565b6000604082019050818103600083015261115e81856110e6565b9050818103602083015261117281846110e6565b90509392505050565b600081519050919050565b600082825260208201905092915050565b60006111a28261117b565b6111ac8185611186565b93506111bc818560208601610b74565b6111c581610ab7565b840191505092915050565b600060a0820190506111e56000830188610c89565b6111f26020830187610c89565b6111ff6040830186610fa6565b61120c6060830185610fa6565b818103608083015261121e8184611197565b90509695505050505050565b60007fffffffff0000000000000000000000000000000000000000000000000000000082169050919050565b61125f8161122a565b811461126a57600080fd5b50565b60008151905061127c81611256565b92915050565b60006020828403121561129857611297610aa3565b5b60006112a68482850161126d565b91505092915050565b600060a0820190506112c46000830188610c89565b6112d16020830187610c89565b81810360408301526112e381866110e6565b905081810360608301526112f781856110e6565b9050818103608083015261130b8184611197565b90509695505050505050565b612678806113266000396000f3fe608060405234801561001057600080fd5b50600436106100e95760003560e01c806355f804b31161008c578063a22cb46511610066578063a22cb46514610248578063e985e9c514610264578063f242432a14610294578063f2fde38b146102b0576100e9565b806355f804b314610204578063715018a6146102205780638da5cb5b1461022a576100e9565b80632eb2c2d6116100c85780632eb2c2d61461017e5780632f9665701461019a578063446baa30146101b85780634e1273f4146101d4576100e9565b8062fdd58e146100ee57806301ffc9a71461011e5780630e89341c1461014e575b600080fd5b6101086004803603810190610103919061173c565b6102cc565b604051610115919061178b565b60405180910390f35b610138600480360381019061013391906117fe565b610326565b6040516101459190611846565b60405180910390f35b61016860048036038101906101639190611861565b610408565b604051610175919061191e565b60405180910390f35b61019860048036038101906101939190611b3d565b61049c565b005b6101a2610544565b6040516101af919061178b565b60405180910390f35b6101d260048036038101906101cd919061173c565b610549565b005b6101ee60048036038101906101e99190611ccf565b610569565b6040516101fb9190611e05565b60405180910390f35b61021e60048036038101906102199190611ec8565b610672565b005b610228610686565b005b61023261069a565b60405161023f9190611f20565b60405180910390f35b610262600480360381019061025d9190611f67565b6106c4565b005b61027e60048036038101906102799190611fa7565b6106da565b60405161028b9190611846565b60405180910390f35b6102ae60048036038101906102a99190611fe7565b61076e565b005b6102ca60048036038101906102c5919061207e565b610816565b005b600080600083815260200190815260200160002060008473ffffffffffffffffffffffffffffffffffffffff1673ffffffffffffffffffffffffffffffffffffffff16815260200190815260200160002054905092915050565b60007fd9b67a26000000000000000000000000000000000000000000000000000000007bffffffffffffffffffffffffffffffffffffffffffffffffffffffff1916827bffffffffffffffffffffffffffffffffffffffffffffffffffffffff191614806103f157507f0e89341c000000000000000000000000000000000000000000000000000000007bffffffffffffffffffffffffffffffffffffffffffffffffffffffff1916827bffffffffffffffffffffffffffffffffffffffffffffffffffffffff1916145b8061040157506104008261089c565b5b9050919050565b606060028054610417906120da565b80601f0160208091040260200160405190810160405280929190818152602001828054610443906120da565b80156104905780601f1061046557610100808354040283529160200191610490565b820191906000526020600020905b81548152906001019060200180831161047357829003601f168201915b50505050509050919050565b60006104a6610906565b90508073ffffffffffffffffffffffffffffffffffffffff168673ffffffffffffffffffffffffffffffffffffffff16141580156104eb57506104e986826106da565b155b1561052f5780866040517fe237d92200000000000000000000000000000000000000000000000000000000815260040161052692919061210b565b60405180910390fd5b61053c868686868661090e565b505050505050565b600181565b6105658260018360405180602001604052806000815250610a06565b5050565b606081518351146105b557815183516040517f5b0599910000000000000000000000000000000000000000000000000000000081526004016105ac929190612134565b60405180910390fd5b6000835167ffffffffffffffff8111156105d2576105d1611945565b5b6040519080825280602002602001820160405280156106005781602001602082028036833780820191505090505b50905060005b84518110156106675761063d6106258287610a9f90919063ffffffff16565b6106388387610ab390919063ffffffff16565b6102cc565b8282815181106106505761064f61215d565b5b602002602001018181525050806001019050610606565b508091505092915050565b61067a610ac7565b61068381610b4e565b50565b61068e610ac7565b6106986000610b61565b565b6000600360009054906101000a900473ffffffffffffffffffffffffffffffffffffffff16905090565b6106d66106cf610906565b8383610c27565b5050565b6000600160008473ffffffffffffffffffffffffffffffffffffffff1673ffffffffffffffffffffffffffffffffffffffff16815260200190815260200160002060008373ffffffffffffffffffffffffffffffffffffffff1673ffffffffffffffffffffffffffffffffffffffff16815260200190815260200160002060009054906101000a900460ff16905092915050565b6000610778610906565b90508073ffffffffffffffffffffffffffffffffffffffff168673ffffffffffffffffffffffffffffffffffffffff16141580156107bd57506107bb86826106da565b155b156108015780866040517fe237d9220000000000000000000000000000000000000000000000000000000081526004016107f892919061210b565b60405180910390fd5b61080e8686868686610d97565b505050505050565b61081e610ac7565b600073ffffffffffffffffffffffffffffffffffffffff168173ffffffffffffffffffffffffffffffffffffffff16036108905760006040517f1e4fbdf70000000000000000000000000000000000000000000000000000000081526004016108879190611f20565b60405180910390fd5b61089981610b61565b50565b60007f01ffc9a7000000000000000000000000000000000000000000000000000000007bffffffffffffffffffffffffffffffffffffffffffffffffffffffff1916827bffffffffffffffffffffffffffffffffffffffffffffffffffffffff1916149050919050565b600033905090565b600073ffffffffffffffffffffffffffffffffffffffff168473ffffffffffffffffffffffffffffffffffffffff16036109805760006040517f57f447ce0000000000000000000000000000000000000000000000000000000081526004016109779190611f20565b60405180910390fd5b600073ffffffffffffffffffffffffffffffffffffffff168573ffffffffffffffffffffffffffffffffffffffff16036109f25760006040517f01a835140000000000000000000000000000000000000000000000000000000081526004016109e99190611f20565b60405180910390fd5b6109ff8585858585610ea2565b5050505050565b600073ffffffffffffffffffffffffffffffffffffffff168473ffffffffffffffffffffffffffffffffffffffff1603610a785760006040517f57f447ce000000000000000000000000000000000000000000000000000000008152600401610a6f9190611f20565b60405180910390fd5b600080610a858585610f54565b91509150610a97600087848487610ea2565b505050505050565b600060208202602084010151905092915050565b600060208202602084010151905092915050565b610acf610906565b73ffffffffffffffffffffffffffffffffffffffff16610aed61069a565b73ffffffffffffffffffffffffffffffffffffffff1614610b4c57610b10610906565b6040517f118cdaa7000000000000000000000000000000000000000000000000000000008152600401610b439190611f20565b60405180910390fd5b565b8060029081610b5d9190612338565b5050565b6000600360009054906101000a900473ffffffffffffffffffffffffffffffffffffffff16905081600360006101000a81548173ffffffffffffffffffffffffffffffffffffffff021916908373ffffffffffffffffffffffffffffffffffffffff1602179055508173ffffffffffffffffffffffffffffffffffffffff168173ffffffffffffffffffffffffffffffffffffffff167f8be0079c531659141344cd1fd0a4f28419497f9722a3daafe3b4186f6b6457e060405160405180910390a35050565b600073ffffffffffffffffffffffffffffffffffffffff168273ffffffffffffffffffffffffffffffffffffffff1603610c995760006040517fced3e100000000000000000000000000000000000000000000000000000000008152600401610c909190611f20565b60405180910390fd5b80600160008573ffffffffffffffffffffffffffffffffffffffff1673ffffffffffffffffffffffffffffffffffffffff16815260200190815260200160002060008473ffffffffffffffffffffffffffffffffffffffff1673ffffffffffffffffffffffffffffffffffffffff16815260200190815260200160002060006101000a81548160ff0219169083151502179055508173ffffffffffffffffffffffffffffffffffffffff168373ffffffffffffffffffffffffffffffffffffffff167f17307eab39ab6107e8899845ad3d59bd9653f200f220920489ca2b5937696c3183604051610d8a9190611846565b60405180910390a3505050565b600073ffffffffffffffffffffffffffffffffffffffff168473ffffffffffffffffffffffffffffffffffffffff1603610e095760006040517f57f447ce000000000000000000000000000000000000000000000000000000008152600401610e009190611f20565b60405180910390fd5b600073ffffffffffffffffffffffffffffffffffffffff168573ffffffffffffffffffffffffffffffffffffffff1603610e7b5760006040517f01a83514000000000000000000000000000000000000000000000000000000008152600401610e729190611f20565b60405180910390fd5b600080610e888585610f54565b91509150610e998787848487610ea2565b50505050505050565b610eae85858585610f84565b600073ffffffffffffffffffffffffffffffffffffffff168473ffffffffffffffffffffffffffffffffffffffff1614610f4d576000610eec610906565b90506001845103610f3c576000610f0d600086610ab390919063ffffffff16565b90506000610f25600086610ab390919063ffffffff16565b9050610f3583898985858961132c565b5050610f4b565b610f4a8187878787876114e0565b5b505b5050505050565b60608060405191506001825283602083015260408201905060018152826020820152604081016040529250929050565b8051825114610fce57815181516040517f5b059991000000000000000000000000000000000000000000000000000000008152600401610fc5929190612134565b60405180910390fd5b6000610fd8610906565b905060005b83518110156111e7576000610ffb8286610ab390919063ffffffff16565b905060006110128386610ab390919063ffffffff16565b9050600073ffffffffffffffffffffffffffffffffffffffff168873ffffffffffffffffffffffffffffffffffffffff161461113f57600080600084815260200190815260200160002060008a73ffffffffffffffffffffffffffffffffffffffff1673ffffffffffffffffffffffffffffffffffffffff168152602001908152602001600020549050818110156110e757888183856040517f03dee4c50000000000000000000000000000000000000000000000000000000081526004016110de949392919061240a565b60405180910390fd5b81810360008085815260200190815260200160002060008b73ffffffffffffffffffffffffffffffffffffffff1673ffffffffffffffffffffffffffffffffffffffff16815260200190815260200160002081905550505b600073ffffffffffffffffffffffffffffffffffffffff168773ffffffffffffffffffffffffffffffffffffffff16146111da578060008084815260200190815260200160002060008973ffffffffffffffffffffffffffffffffffffffff1673ffffffffffffffffffffffffffffffffffffffff16815260200190815260200160002060008282546111d2919061247e565b925050819055505b5050806001019050610fdd565b5060018351036112a6576000611207600085610ab390919063ffffffff16565b9050600061121f600085610ab390919063ffffffff16565b90508573ffffffffffffffffffffffffffffffffffffffff168773ffffffffffffffffffffffffffffffffffffffff168473ffffffffffffffffffffffffffffffffffffffff167fc3d58168c5ae7397731d063d5bbf3d657854427343f4c083240f7aacaa2d0f628585604051611297929190612134565b60405180910390a45050611325565b8373ffffffffffffffffffffffffffffffffffffffff168573ffffffffffffffffffffffffffffffffffffffff168273ffffffffffffffffffffffffffffffffffffffff167f4a39dc06d4c0dbc64b70af90fd698a233a518aa5d07e595d983b8c0526c8f7fb868660405161131c9291906124b2565b60405180910390a45b5050505050565b60008473ffffffffffffffffffffffffffffffffffffffff163b11156114d8578373ffffffffffffffffffffffffffffffffffffffff1663f23a6e6187878686866040518663ffffffff1660e01b815260040161138d95949392919061253e565b6020604051808303816000875af19250505080156113c957506040513d601f19601f820116820180604052508101906113c691906125ad565b60015b61144d573d80600081146113f9576040519150601f19603f3d011682016040523d82523d6000602084013e6113fe565b606091505b50600081510361144557846040517f57f447ce00000000000000000000000000000000000000000000000000000000815260040161143c9190611f20565b60405180910390fd5b805181602001fd5b63f23a6e6160e01b7bffffffffffffffffffffffffffffffffffffffffffffffffffffffff1916817bffffffffffffffffffffffffffffffffffffffffffffffffffffffff1916146114d657846040517f57f447ce0000000000000000000000000000000000000000000000000000000081526004016114cd9190611f20565b60405180910390fd5b505b505050505050565b60008473ffffffffffffffffffffffffffffffffffffffff163b111561168c578373ffffffffffffffffffffffffffffffffffffffff1663bc197c8187878686866040518663ffffffff1660e01b81526004016115419594939291906125da565b6020604051808303816000875af192505050801561157d57506040513d601f19601f8201168201806040525081019061157a91906125ad565b60015b611601573d80600081146115ad576040519150601f19603f3d011682016040523d82523d6000602084013e6115b2565b606091505b5060008151036115f957846040517f57f447ce0000000000000000000000000000000000000000000000000000000081526004016115f09190611f20565b60405180910390fd5b805181602001fd5b63bc197c8160e01b7bffffffffffffffffffffffffffffffffffffffffffffffffffffffff1916817bffffffffffffffffffffffffffffffffffffffffffffffffffffffff19161461168a57846040517f57f447ce0000000000000000000000000000000000000000000000000000000081526004016116819190611f20565b60405180910390fd5b505b505050505050565b6000604051905090565b600080fd5b600080fd5b600073ffffffffffffffffffffffffffffffffffffffff82169050919050565b60006116d3826116a8565b9050919050565b6116e3816116c8565b81146116ee57600080fd5b50565b600081359050611700816116da565b92915050565b6000819050919050565b61171981611706565b811461172457600080fd5b50565b60008135905061173681611710565b92915050565b600080604083850312156117535761175261169e565b5b6000611761858286016116f1565b925050602061177285828601611727565b9150509250929050565b61178581611706565b82525050565b60006020820190506117a0600083018461177c565b92915050565b60007fffffffff0000000000000000000000000000000000000000000000000000000082169050919050565b6117db816117a6565b81146117e657600080fd5b50565b6000813590506117f8816117d2565b92915050565b6000602082840312156118145761181361169e565b5b6000611822848285016117e9565b91505092915050565b60008115159050919050565b6118408161182b565b82525050565b600060208201905061185b6000830184611837565b92915050565b6000602082840312156118775761187661169e565b5b600061188584828501611727565b91505092915050565b600081519050919050565b600082825260208201905092915050565b60005b838110156118c85780820151818401526020810190506118ad565b60008484015250505050565b6000601f19601f8301169050919050565b60006118f08261188e565b6118fa8185611899565b935061190a8185602086016118aa565b611913816118d4565b840191505092915050565b6000602082019050818103600083015261193881846118e5565b905092915050565b600080fd5b7f4e487b7100000000000000000000000000000000000000000000000000000000600052604160045260246000fd5b61197d826118d4565b810181811067ffffffffffffffff8211171561199c5761199b611945565b5b80604052505050565b60006119af611694565b90506119bb8282611974565b919050565b600067ffffffffffffffff8211156119db576119da611945565b5b602082029050602081019050919050565b600080fd5b6000611a046119ff846119c0565b6119a5565b90508083825260208201905060208402830185811115611a2757611a266119ec565b5b835b81811015611a505780611a3c8882611727565b845260208401935050602081019050611a29565b5050509392505050565b600082601f830112611a6f57611a6e611940565b5b8135611a7f8482602086016119f1565b91505092915050565b600080fd5b600067ffffffffffffffff821115611aa857611aa7611945565b5b611ab1826118d4565b9050602081019050919050565b82818337600083830152505050565b6000611ae0611adb84611a8d565b6119a5565b905082815260208101848484011115611afc57611afb611a88565b5b611b07848285611abe565b509392505050565b600082601f830112611b2457611b23611940565b5b8135611b34848260208601611acd565b91505092915050565b600080600080600060a08688031215611b5957611b5861169e565b5b6000611b67888289016116f1565b9550506020611b78888289016116f1565b945050604086013567ffffffffffffffff811115611b9957611b986116a3565b5b611ba588828901611a5a565b935050606086013567ffffffffffffffff811115611bc657611bc56116a3565b5b611bd288828901611a5a565b925050608086013567ffffffffffffffff811115611bf357611bf26116a3565b5b611bff88828901611b0f565b9150509295509295909350565b600067ffffffffffffffff821115611c2757611c26611945565b5b602082029050602081019050919050565b6000611c4b611c4684611c0c565b6119a5565b90508083825260208201905060208402830185811115611c6e57611c6d6119ec565b5b835b81811015611c975780611c8388826116f1565b845260208401935050602081019050611c70565b5050509392505050565b600082601f830112611cb657611cb5611940565b5b8135611cc6848260208601611c38565b91505092915050565b60008060408385031215611ce657611ce561169e565b5b600083013567ffffffffffffffff811115611d0457611d036116a3565b5b611d1085828601611ca1565b925050602083013567ffffffffffffffff811115611d3157611d306116a3565b5b611d3d85828601611a5a565b9150509250929050565b600081519050919050565b600082825260208201905092915050565b6000819050602082019050919050565b611d7c81611706565b82525050565b6000611d8e8383611d73565b60208301905092915050565b6000602082019050919050565b6000611db282611d47565b611dbc8185611d52565b9350611dc783611d63565b8060005b83811015611df8578151611ddf8882611d82565b9750611dea83611d9a565b925050600181019050611dcb565b5085935050505092915050565b60006020820190508181036000830152611e1f8184611da7565b905092915050565b600067ffffffffffffffff821115611e4257611e41611945565b5b611e4b826118d4565b9050602081019050919050565b6000611e6b611e6684611e27565b6119a5565b905082815260208101848484011115611e8757611e86611a88565b5b611e92848285611abe565b509392505050565b600082601f830112611eaf57611eae611940565b5b8135611ebf848260208601611e58565b91505092915050565b600060208284031215611ede57611edd61169e565b5b600082013567ffffffffffffffff811115611efc57611efb6116a3565b5b611f0884828501611e9a565b91505092915050565b611f1a816116c8565b82525050565b6000602082019050611f356000830184611f11565b92915050565b611f448161182b565b8114611f4f57600080fd5b50565b600081359050611f6181611f3b565b92915050565b60008060408385031215611f7e57611f7d61169e565b5b6000611f8c858286016116f1565b9250506020611f9d85828601611f52565b9150509250929050565b60008060408385031215611fbe57611fbd61169e565b5b6000611fcc858286016116f1565b9250506020611fdd858286016116f1565b9150509250929050565b600080600080600060a086880312156120035761200261169e565b5b6000612011888289016116f1565b9550506020612022888289016116f1565b945050604061203388828901611727565b935050606061204488828901611727565b925050608086013567ffffffffffffffff811115612065576120646116a3565b5b61207188828901611b0f565b9150509295509295909350565b6000602082840312156120945761209361169e565b5b60006120a2848285016116f1565b91505092915050565b7f4e487b7100000000000000000000000000000000000000000000000000000000600052602260045260246000fd5b600060028204905060018216806120f257607f821691505b602082108103612105576121046120ab565b5b50919050565b60006040820190506121206000830185611f11565b61212d6020830184611f11565b9392505050565b6000604082019050612149600083018561177c565b612156602083018461177c565b9392505050565b7f4e487b7100000000000000000000000000000000000000000000000000000000600052603260045260246000fd5b60008190508160005260206000209050919050565b60006020601f8301049050919050565b600082821b905092915050565b6000600883026121ee7fffffffffffffffffffffffffffffffffffffffffffffffffffffffffffffffff826121b1565b6121f886836121b1565b95508019841693508086168417925050509392505050565b6000819050919050565b600061223561223061222b84611706565b612210565b611706565b9050919050565b6000819050919050565b61224f8361221a565b61226361225b8261223c565b8484546121be565b825550505050565b600090565b61227861226b565b612283818484612246565b505050565b5b818110156122a75761229c600082612270565b600181019050612289565b5050565b601f8211156122ec576122bd8161218c565b6122c6846121a1565b810160208510156122d5578190505b6122e96122e1856121a1565b830182612288565b50505b505050565b600082821c905092915050565b600061230f600019846008026122f1565b1980831691505092915050565b600061232883836122fe565b9150826002028217905092915050565b6123418261188e565b67ffffffffffffffff81111561235a57612359611945565b5b61236482546120da565b61236f8282856122ab565b600060209050601f8311600181146123a25760008415612390578287015190505b61239a858261231c565b865550612402565b601f1984166123b08661218c565b60005b828110156123d8578489015182556001820191506020850194506020810190506123b3565b868310156123f557848901516123f1601f8916826122fe565b8355505b6001600288020188555050505b505050505050565b600060808201905061241f6000830187611f11565b61242c602083018661177c565b612439604083018561177c565b612446606083018461177c565b95945050505050565b7f4e487b7100000000000000000000000000000000000000000000000000000000600052601160045260246000fd5b600061248982611706565b915061249483611706565b92508282019050808211156124ac576124ab61244f565b5b92915050565b600060408201905081810360008301526124cc8185611da7565b905081810360208301526124e08184611da7565b90509392505050565b600081519050919050565b600082825260208201905092915050565b6000612510826124e9565b61251a81856124f4565b935061252a8185602086016118aa565b612533816118d4565b840191505092915050565b600060a0820190506125536000830188611f11565b6125606020830187611f11565b61256d604083018661177c565b61257a606083018561177c565b818103608083015261258c8184612505565b90509695505050505050565b6000815190506125a7816117d2565b92915050565b6000602082840312156125c3576125c261169e565b5b60006125d184828501612598565b91505092915050565b600060a0820190506125ef6000830188611f11565b6125fc6020830187611f11565b818103604083015261260e8186611da7565b905081810360608301526126228185611da7565b905081810360808301526126368184612505565b9050969550505050505056fea26469706673582212205ceae14408a40cd5c408ab97bf219c332f3618466782d88030cbc845bbd0bd5564736f6c634300081c0033",
  "linkReferences": {},
  "deployedLinkReferences": {}
}